{"contracts/RumbleCourt.sol":{"RumbleCourt":{"abi":[{"inputs":[],"stateMutability":"nonpayable","type":"constructor"},{"anonymous":false,"inputs":[{"indexed":true,"internalType":"uint256","name":"caseId","type":"uint256"}],"name":"CaseAppealed","type":"event"},{"anonymous":false,"inputs":[{"indexed":true,"internalType":"uint256","name":"caseId","type":"uint256"},{"indexed":true,"internalType":"address","name":"plaintiff","type":"address"},{"indexed":false,"internalType":"string","name":"caseTitle","type":"string"}],"name":"CaseFiled","type":"event"},{"anonymous":false,"inputs":[{"indexed":true,"internalType":"uint256","name":"caseId","type":"uint256"}],"name":"TrialStarted","type":"event"},{"anonymous":false,"inputs":[{"indexed":true,"internalType":"uint256","name":"caseId","type":"uint256"},{"indexed":false,"internalType":"enum RumbleCourt.VerdictType","name":"verdictType","type":"uint8"},{"indexed":false,"internalType":"bool","name":"isFinal","type":"bool"}],"name":"VerdictRecorded","type":"event"},{"inputs":[{"internalType":"uint256","name":"caseId","type":"uint256"}],"name":"appealCase","outputs":[],"stateMutability":"nonpayable","type":"function"},{"inputs":[{"internalType":"uint256","name":"","type":"uint256"}],"name":"cases","outputs":[{"internalType":"uint256","name":"caseId","type":"uint256"},{"internalType":"address","name":"plaintiff","type":"address"},{"internalType":"string","name":"caseTitle","type":"string"},{"internalType":"string","name":"evidenceHash","type":"string"},{"internalType":"uint256","name":"filedAt","type":"uint256"},{"internalType":"enum RumbleCourt.CaseStatus","name":"status","type":"uint8"}],"stateMutability":"view","type":"function"},{"inputs":[{"internalType":"string","name":"caseTitle","type":"string"},{"internalType":"string","name":"evidenceHash","type":"string"}],"name":"fileCase","outputs":[{"internalType":"uint256","name":"caseId","type":"uint256"}],"stateMutability":"nonpayable","type":"function"},{"inputs":[{"internalType":"uint256","name":"caseId","type":"uint256"}],"name":"getCase","outputs":[{"components":[{"internalType":"uint256","name":"caseId","type":"uint256"},{"internalType":"address","name":"plaintiff","type":"address"},{"internalType":"string","name":"caseTitle","type":"string"},{"internalType":"string","name":"evidenceHash","type":"string"},{"internalType":"uint256","name":"filedAt","type":"uint256"},{"internalType":"enum RumbleCourt.CaseStatus","name":"status","type":"uint8"}],"internalType":"struct RumbleCourt.Case","name":"","type":"tuple"}],"stateMutability":"view","type":"function"},{"inputs":[],"name":"getTotalCases","outputs":[{"internalType":"uint256","name":"","type":"uint256"}],"stateMutability":"view","type":"function"},{"inputs":[{"internalType":"address","name":"user","type":"address"}],"name":"getUserCases","outputs":[{"internalType":"uint256[]","name":"","type":"uint256[]"}],"stateMutability":"view","type":"function"},{"inputs":[{"internalType":"uint256","name":"caseId","type":"uint256"}],"name":"getVerdict","outputs":[{"components":[{"internalType":"uint256","name":"caseId","type":"uint256"},{"internalType":"enum RumbleCourt.VerdictType","name":"verdictType","type":"uint8"},{"internalType":"string","name":"reasoning","type":"string"},{"internalType":"uint256","name":"timestamp","type":"uint256"},{"internalType":"bool","name":"isFinal","type":"bool"}],"internalType":"struct RumbleCourt.Verdict","name":"","type":"tuple"}],"stateMutability":"view","type":"function"},{"inputs":[{"internalType":"uint256","name":"caseId","type":"uint256"}],"name":"hasVerdict","outputs":[{"internalType":"bool","name":"","type":"bool"}],"stateMutability":"view","type":"function"},{"inputs":[],"name":"nextCaseId","outputs":[{"internalType":"uint256","name":"","type":"uint256"}],"stateMutability":"view","type":"function"},{"inputs":[],"name":"owner","outputs":[{"internalType":"address","name":"","type":"address"}],"stateMutability":"view","type":"function"},{"inputs":[{"internalType":"uint256","name":"caseId","type":"uint256"},{"internalType":"enum RumbleCourt.VerdictType","name":"verdictType","type":"uint8"},{"internalType":"string","name":"reasoning","type":"string"},{"internalType":"bool","name":"isFinal","type":"bool"}],"name":"recordVerdict","outputs":[],"stateMutability":"nonpayable","type":"function"},{"inputs":[{"internalType":"uint256","name":"caseId","type":"uint256"}],"name":"startTrial","outputs":[],"stateMutability":"nonpayable","type":"function"},{"inputs":[{"internalType":"address","name":"","type":"address"},{"internalType":"uint256","name":"","type":"uint256"}],"name":"userCases","outputs":[{"internalType":"uint256","name":"","type":"uint256"}],"stateMutability":"view","type":"function"},{"inputs":[{"internalType":"uint256","name":"","type":"uint256"}],"name":"verdicts","outputs":[{"internalType":"uint256","name":"caseId","type":"uint256"},{"internalType":"enum RumbleCourt.VerdictType","name":"verdictType","type":"uint8"},{"internalType":"string","name":"reasoning","type":"string"},{"internalType":"uint256","name":"timestamp","type":"uint256"},{"internalType":"bool","name":"isFinal","type":"bool"}],"stateMutability":"view","type":"function"}],"evm":{"bytecode":{"linkReferences":{},"object":"6080806040523461002d576001600355600480546001600160a01b031916331790556112f690816100338239f35b600080fdfe6080604052600436101561001257600080fd5b60003560e01c8063091951dc14610e6557806316f0ca7e14610e1757806333f3e74b14610cc35780633e0204fe14610c4257806342912c9e14610b5b5780636350eae814610b3d5780637a69b32d14610b125780638da5cb5b14610ae9578063941dc51514610a91578063a91a108014610957578063e1075ed3146108a3578063e9e63ac114610488578063f09790dd146103e55763f5bcc9e0146100b657600080fd5b346103e05760803660031901126103e057600460243510156103e05767ffffffffffffffff6044358181116103e0576100f39036906004016111d0565b90916064351515606435036103e05761011760018060a01b03600454163314611245565b6004351515806103d3575b61012b9061127e565b6004356000526000602052600160ff6005604060002001541661014d81610ff2565b0361039657610183604051936101628561108c565b60043585526020850193610177602435610ff2565b602435855236916111fe565b60408401908152426060850152606435151560808501526004356000526001602052604060002092845184556001840190516101be81610ff2565b6101c781610ff2565b60ff80198354169116179055518051918211610380576101ea6002840154611052565b601f8111610339575b50602090601f83116001146102c4579180608094926004946000926102b9575b50508160011b916000199060031b1c19161760028201555b6060840151600382015501910151151560ff80198354169116179055606435610296575b60405161025d602435610ff2565b6024358152606435151560208201527f90bb86f606f9d02c719c20806a8febf21ae3937a26f2a29ad70d6c6e9b1399c5604060043592a2005b60043560005260006020526005604060002001600260ff1982541617905561024f565b015190503880610213565b906002840160005260206000209160005b601f19851681106103215750926080949260019260049583601f19811610610308575b505050811b01600282015561022b565b015160001960f88460031b161c191690553880806102f8565b919260206001819286850151815501940192016102d5565b600284016000526020600020601f840160051c810160208510610379575b601f830160051c8201811061036d5750506101f3565b60008155600101610357565b5080610357565b634e487b7160e01b600052604160045260246000fd5b60405162461bcd60e51b815260206004820152601560248201527410d85cd9481b5d5cdd081899481a5b881d1c9a585b605a1b6044820152606490fd5b5060035460043510610122565b600080fd5b346103e05760203660031901126103e0576004356000908152602081905260409020805460018201546001600160a01b031691610424600282016110e6565b610470610433600384016110e6565b61046260ff6005600487015496015416936040519788978852602088015260c0604088015260c0870190611012565b908582036060870152611012565b91608084015261047f81610ff2565b60a08301520390f35b346103e05760403660031901126103e05760043567ffffffffffffffff81116103e0576104b99036906004016111d0565b60243567ffffffffffffffff81116103e0576104d99036906004016111d0565b6003549291600019841461088d5760018401600355604051916104fb836110a8565b848352610523602084019233845261051436878a6111fe565b926040860193845236916111fe565b6060840152426080840152600060a084015284600052600060205260406000209183518355600183019060018060a01b039051166bffffffffffffffffffffffff60a01b8254161790555180519067ffffffffffffffff821161038057819061058f6002850154611052565b601f811161083a575b50602090601f83116001146107c8576000926107bd575b50508160011b916000199060031b1c19161760028201555b606082015180519067ffffffffffffffff8211610380576105eb6003840154611052565b601f8111610776575b50602090601f831160011461070357918060a094926005946000926106f8575b50508160011b916000199060031b1c19161760038201555b608084015160048201550191015161064381610ff2565b61064c81610ff2565b60ff801983541691161790553360005260026020526040600020805468010000000000000000811015610380576020946106ae82869460017fa77d68fbcbeabc65166b703a20a3d464bc7afbe9842dae73426661fb9829c97e950181556111a2565b81549060031b9085821b91600019901b19161790558360405191878352818884015260408301376000604085830101526040813395601f80199101168101030190a3604051908152f35b015190508980610614565b90601f198316916003850160005260206000209260005b81811061075e575092600192859260059660a0989610610745575b505050811b01600382015561062c565b015160001960f88460031b161c19169055898080610735565b9293602060018192878601518155019501930161071a565b600384016000526020600020601f840160051c8101602085106107b6575b601f830160051c820181106107aa5750506105f4565b60008155600101610794565b5080610794565b0151905087806105af565b9250600284016000526020600020906000935b601f198416851061081f576001945083601f19811610610806575b505050811b0160028201556105c7565b015160001960f88460031b161c191690558780806107f6565b818101518355602094850194600190930192909101906107db565b909150600284016000526020600020601f840160051c810160208510610886575b90849392915b601f830160051c82018110610877575050610598565b60008155859450600101610861565b508061085b565b634e487b7160e01b600052601160045260246000fd5b346103e0576020806003193601126103e0576001600160a01b036108c561118c565b1660005260028152604060002060405190818382549182815201908192600052846000209060005b86828210610943578686610903828803836110c4565b604051928392818401908285525180915260408401929160005b82811061092c57505050500390f35b83518552869550938101939281019260010161091d565b8354855290930192600192830192016108ed565b346103e0576020806003193601126103e057600435600060a060405161097c816110a8565b828152828582015260606040820152606080820152826080820152015280151580610a86575b6109ab9061127e565b600052600081526040600020604051906109c4826110a8565b8054825260018101546001600160a01b0390811684840190815290610a6c90610a596109f2600286016110e6565b60408701908152610a05600387016110e6565b926060880193845260ff600560048901549860808b01998a520154169560a0890196610a3081610ff2565b8752604051998a99818b5251908a0152511660408801525160c0606088015260e0870190611012565b9051858203601f19016080870152611012565b915160a084015251610a7d81610ff2565b60c08301520390f35b5060035481106109a2565b346103e05760403660031901126103e057610aaa61118c565b6001600160a01b03166000908152600260205260409020805460243591908210156103e057602091610adb916111a2565b90546040519160031b1c8152f35b346103e05760003660031901126103e0576004546040516001600160a01b039091168152602090f35b346103e05760003660031901126103e057600354600019810190811161088d57602090604051908152f35b346103e05760003660031901126103e0576020600354604051908152f35b346103e05760203660031901126103e057600435610b8460018060a01b03600454163314611245565b80151580610c37575b610b969061127e565b80600052600060205260ff60056040600020015416610bb481610ff2565b610bfb578060005260006020526005604060002001600160ff198254161790557fce614ce1271011a18a325ff95246c64fe33780985159627d996036735df6f588600080a2005b60405162461bcd60e51b815260206004820152601460248201527343617365206d7573742062652070656e64696e6760601b6044820152606490fd5b506003548110610b8d565b346103e05760203660031901126103e05760043560005260016020526040600020805460ff60018301541691610c7a600282016110e6565b610cb260ff6004600385015494015416916040519586958652610c9c81610ff2565b602086015260a0604086015260a0850190611012565b916060840152151560808301520390f35b346103e0576020806003193601126103e05760043560006080604051610ce88161108c565b828152828582015260606040820152826060820152015280151580610e0c575b610d119061127e565b806000526001825260036040600020015415610dd15760005260018152604060002060405190610d408261108c565b8054825260ff60018201541683830190610d5981610ff2565b8152610dbe610d6a600284016110e6565b6040850190815260ff60046003860154956060880196875201541692608086019315158452604051968796818852519087015251610da781610ff2565b60408601525160a0606086015260c0850190611012565b9151608084015251151560a08301520390f35b60405162461bcd60e51b8152600481018390526013602482015272139bc81d995c991a58dd081c9958dbdc991959606a1b6044820152606490fd5b506003548110610d08565b346103e05760203660031901126103e05760043580151580610e5a575b610e3d9061127e565b600052600160205260206003604060002001541515604051908152f35b506003548110610e34565b346103e0576020806003193601126103e0576004359081151580610fe7575b610e8d9061127e565b600082815280825260409020600101546001600160a01b03163303610fa3578160005260008152600260ff60056040600020015416610ecb81610ff2565b03610f6657816000526001815260ff6004604060002001541615610f2a57600090828252526005604060002001600360ff198254161790557f92924a552a1c83f95df518f16c6f1bdfc61a7b7323255ede1ef8f3dfe2dc437c600080a2005b6064906040519062461bcd60e51b82526004820152601560248201527415995c991a58dd081b5d5cdd08189948199a5b985b605a1b6044820152fd5b6064906040519062461bcd60e51b82526004820152601660248201527510d85cd9481b5d5cdd0818994818dbdb5c1b195d195960521b6044820152fd5b6064906040519062461bcd60e51b82526004820152601960248201527f4f6e6c7920706c61696e746966662063616e2061707065616c000000000000006044820152fd5b506003548210610e84565b60041115610ffc57565b634e487b7160e01b600052602160045260246000fd5b919082519283825260005b84811061103e575050826000602080949584010152601f8019910116010190565b60208183018101518483018201520161101d565b90600182811c92168015611082575b602083101461106c57565b634e487b7160e01b600052602260045260246000fd5b91607f1691611061565b60a0810190811067ffffffffffffffff82111761038057604052565b60c0810190811067ffffffffffffffff82111761038057604052565b90601f8019910116810190811067ffffffffffffffff82111761038057604052565b90604051918260008254926110fa84611052565b9081845260019485811690816000146111695750600114611126575b5050611124925003836110c4565b565b9093915060005260209081600020936000915b81831061115157505061112493508201013880611116565b85548884018501529485019487945091830191611139565b91505061112494506020925060ff191682840152151560051b8201013880611116565b600435906001600160a01b03821682036103e057565b80548210156111ba5760005260206000200190600090565b634e487b7160e01b600052603260045260246000fd5b9181601f840112156103e05782359167ffffffffffffffff83116103e057602083818601950101116103e057565b92919267ffffffffffffffff82116103805760405191611228601f8201601f1916602001846110c4565b8294818452818301116103e0578281602093846000960137010152565b1561124c57565b60405162461bcd60e51b815260206004820152600a60248201526927b7363c9037bbb732b960b11b6044820152606490fd5b1561128557565b60405162461bcd60e51b815260206004820152601360248201527210d85cd948191bd95cc81b9bdd08195e1a5cdd606a1b6044820152606490fdfea2646970667358221220e444319aee051f1af8fabd1190d8c769cd93d1f83609adc347003729105d246964736f6c63430008130033","opcodes":"PUSH1 0x80 DUP1 PUSH1 0x40 MSTORE CALLVALUE PUSH2 0x2D JUMPI PUSH1 0x1 PUSH1 0x3 SSTORE PUSH1 0x4 DUP1 SLOAD PUSH1 0x1 PUSH1 0x1 PUSH1 0xA0 SHL SUB NOT AND CALLER OR SWAP1 SSTORE PUSH2 0x12F6 SWAP1 DUP2 PUSH2 0x33 DUP3 CODECOPY RETURN JUMPDEST PUSH1 0x0 DUP1 REVERT INVALID PUSH1 0x80 PUSH1 0x40 MSTORE PUSH1 0x4 CALLDATASIZE LT ISZERO PUSH2 0x12 JUMPI PUSH1 0x0 DUP1 REVERT JUMPDEST PUSH1 0x0 CALLDATALOAD PUSH1 0xE0 SHR DUP1 PUSH4 0x91951DC EQ PUSH2 0xE65 JUMPI DUP1 PUSH4 0x16F0CA7E EQ PUSH2 0xE17 JUMPI DUP1 PUSH4 0x33F3E74B EQ PUSH2 0xCC3 JUMPI DUP1 PUSH4 0x3E0204FE EQ PUSH2 0xC42 JUMPI DUP1 PUSH4 0x42912C9E EQ PUSH2 0xB5B JUMPI DUP1 PUSH4 0x6350EAE8 EQ PUSH2 0xB3D JUMPI DUP1 PUSH4 0x7A69B32D EQ PUSH2 0xB12 JUMPI DUP1 PUSH4 0x8DA5CB5B EQ PUSH2 0xAE9 JUMPI DUP1 PUSH4 0x941DC515 EQ PUSH2 0xA91 JUMPI DUP1 PUSH4 0xA91A1080 EQ PUSH2 0x957 JUMPI DUP1 PUSH4 0xE1075ED3 EQ PUSH2 0x8A3 JUMPI DUP1 PUSH4 0xE9E63AC1 EQ PUSH2 0x488 JUMPI DUP1 PUSH4 0xF09790DD EQ PUSH2 0x3E5 JUMPI PUSH4 0xF5BCC9E0 EQ PUSH2 0xB6 JUMPI PUSH1 0x0 DUP1 REVERT JUMPDEST CALLVALUE PUSH2 0x3E0 JUMPI PUSH1 0x80 CALLDATASIZE PUSH1 0x3 NOT ADD SLT PUSH2 0x3E0 JUMPI PUSH1 0x4 PUSH1 0x24 CALLDATALOAD LT ISZERO PUSH2 0x3E0 JUMPI PUSH8 0xFFFFFFFFFFFFFFFF PUSH1 0x44 CALLDATALOAD DUP2 DUP2 GT PUSH2 0x3E0 JUMPI PUSH2 0xF3 SWAP1 CALLDATASIZE SWAP1 PUSH1 0x4 ADD PUSH2 0x11D0 JUMP JUMPDEST SWAP1 SWAP2 PUSH1 0x64 CALLDATALOAD ISZERO ISZERO PUSH1 0x64 CALLDATALOAD SUB PUSH2 0x3E0 JUMPI PUSH2 0x117 PUSH1 0x1 DUP1 PUSH1 0xA0 SHL SUB PUSH1 0x4 SLOAD AND CALLER EQ PUSH2 0x1245 JUMP JUMPDEST PUSH1 0x4 CALLDATALOAD ISZERO ISZERO DUP1 PUSH2 0x3D3 JUMPI JUMPDEST PUSH2 0x12B SWAP1 PUSH2 0x127E JUMP JUMPDEST PUSH1 0x4 CALLDATALOAD PUSH1 0x0 MSTORE PUSH1 0x0 PUSH1 0x20 MSTORE PUSH1 0x1 PUSH1 0xFF PUSH1 0x5 PUSH1 0x40 PUSH1 0x0 KECCAK256 ADD SLOAD AND PUSH2 0x14D DUP2 PUSH2 0xFF2 JUMP JUMPDEST SUB PUSH2 0x396 JUMPI PUSH2 0x183 PUSH1 0x40 MLOAD SWAP4 PUSH2 0x162 DUP6 PUSH2 0x108C JUMP JUMPDEST PUSH1 0x4 CALLDATALOAD DUP6 MSTORE PUSH1 0x20 DUP6 ADD SWAP4 PUSH2 0x177 PUSH1 0x24 CALLDATALOAD PUSH2 0xFF2 JUMP JUMPDEST PUSH1 0x24 CALLDATALOAD DUP6 MSTORE CALLDATASIZE SWAP2 PUSH2 0x11FE JUMP JUMPDEST PUSH1 0x40 DUP5 ADD SWAP1 DUP2 MSTORE TIMESTAMP PUSH1 0x60 DUP6 ADD MSTORE PUSH1 0x64 CALLDATALOAD ISZERO ISZERO PUSH1 0x80 DUP6 ADD MSTORE PUSH1 0x4 CALLDATALOAD PUSH1 0x0 MSTORE PUSH1 0x1 PUSH1 0x20 MSTORE PUSH1 0x40 PUSH1 0x0 KECCAK256 SWAP3 DUP5 MLOAD DUP5 SSTORE PUSH1 0x1 DUP5 ADD SWAP1 MLOAD PUSH2 0x1BE DUP2 PUSH2 0xFF2 JUMP JUMPDEST PUSH2 0x1C7 DUP2 PUSH2 0xFF2 JUMP JUMPDEST PUSH1 0xFF DUP1 NOT DUP4 SLOAD AND SWAP2 AND OR SWAP1 SSTORE MLOAD DUP1 MLOAD SWAP2 DUP3 GT PUSH2 0x380 JUMPI PUSH2 0x1EA PUSH1 0x2 DUP5 ADD SLOAD PUSH2 0x1052 JUMP JUMPDEST PUSH1 0x1F DUP2 GT PUSH2 0x339 JUMPI JUMPDEST POP PUSH1 0x20 SWAP1 PUSH1 0x1F DUP4 GT PUSH1 0x1 EQ PUSH2 0x2C4 JUMPI SWAP2 DUP1 PUSH1 0x80 SWAP5 SWAP3 PUSH1 0x4 SWAP5 PUSH1 0x0 SWAP3 PUSH2 0x2B9 JUMPI JUMPDEST POP POP DUP2 PUSH1 0x1 SHL SWAP2 PUSH1 0x0 NOT SWAP1 PUSH1 0x3 SHL SHR NOT AND OR PUSH1 0x2 DUP3 ADD SSTORE JUMPDEST PUSH1 0x60 DUP5 ADD MLOAD PUSH1 0x3 DUP3 ADD SSTORE ADD SWAP2 ADD MLOAD ISZERO ISZERO PUSH1 0xFF DUP1 NOT DUP4 SLOAD AND SWAP2 AND OR SWAP1 SSTORE PUSH1 0x64 CALLDATALOAD PUSH2 0x296 JUMPI JUMPDEST PUSH1 0x40 MLOAD PUSH2 0x25D PUSH1 0x24 CALLDATALOAD PUSH2 0xFF2 JUMP JUMPDEST PUSH1 0x24 CALLDATALOAD DUP2 MSTORE PUSH1 0x64 CALLDATALOAD ISZERO ISZERO PUSH1 0x20 DUP3 ADD MSTORE PUSH32 0x90BB86F606F9D02C719C20806A8FEBF21AE3937A26F2A29AD70D6C6E9B1399C5 PUSH1 0x40 PUSH1 0x4 CALLDATALOAD SWAP3 LOG2 STOP JUMPDEST PUSH1 0x4 CALLDATALOAD PUSH1 0x0 MSTORE PUSH1 0x0 PUSH1 0x20 MSTORE PUSH1 0x5 PUSH1 0x40 PUSH1 0x0 KECCAK256 ADD PUSH1 0x2 PUSH1 0xFF NOT DUP3 SLOAD AND OR SWAP1 SSTORE PUSH2 0x24F JUMP JUMPDEST ADD MLOAD SWAP1 POP CODESIZE DUP1 PUSH2 0x213 JUMP JUMPDEST SWAP1 PUSH1 0x2 DUP5 ADD PUSH1 0x0 MSTORE PUSH1 0x20 PUSH1 0x0 KECCAK256 SWAP2 PUSH1 0x0 JUMPDEST PUSH1 0x1F NOT DUP6 AND DUP2 LT PUSH2 0x321 JUMPI POP SWAP3 PUSH1 0x80 SWAP5 SWAP3 PUSH1 0x1 SWAP3 PUSH1 0x4 SWAP6 DUP4 PUSH1 0x1F NOT DUP2 AND LT PUSH2 0x308 JUMPI JUMPDEST POP POP POP DUP2 SHL ADD PUSH1 0x2 DUP3 ADD SSTORE PUSH2 0x22B JUMP JUMPDEST ADD MLOAD PUSH1 0x0 NOT PUSH1 0xF8 DUP5 PUSH1 0x3 SHL AND SHR NOT AND SWAP1 SSTORE CODESIZE DUP1 DUP1 PUSH2 0x2F8 JUMP JUMPDEST SWAP2 SWAP3 PUSH1 0x20 PUSH1 0x1 DUP2 SWAP3 DUP7 DUP6 ADD MLOAD DUP2 SSTORE ADD SWAP5 ADD SWAP3 ADD PUSH2 0x2D5 JUMP JUMPDEST PUSH1 0x2 DUP5 ADD PUSH1 0x0 MSTORE PUSH1 0x20 PUSH1 0x0 KECCAK256 PUSH1 0x1F DUP5 ADD PUSH1 0x5 SHR DUP2 ADD PUSH1 0x20 DUP6 LT PUSH2 0x379 JUMPI JUMPDEST PUSH1 0x1F DUP4 ADD PUSH1 0x5 SHR DUP3 ADD DUP2 LT PUSH2 0x36D JUMPI POP POP PUSH2 0x1F3 JUMP JUMPDEST PUSH1 0x0 DUP2 SSTORE PUSH1 0x1 ADD PUSH2 0x357 JUMP JUMPDEST POP DUP1 PUSH2 0x357 JUMP JUMPDEST PUSH4 0x4E487B71 PUSH1 0xE0 SHL PUSH1 0x0 MSTORE PUSH1 0x41 PUSH1 0x4 MSTORE PUSH1 0x24 PUSH1 0x0 REVERT JUMPDEST PUSH1 0x40 MLOAD PUSH3 0x461BCD PUSH1 0xE5 SHL DUP2 MSTORE PUSH1 0x20 PUSH1 0x4 DUP3 ADD MSTORE PUSH1 0x15 PUSH1 0x24 DUP3 ADD MSTORE PUSH21 0x10D85CD9481B5D5CDD081899481A5B881D1C9A585B PUSH1 0x5A SHL PUSH1 0x44 DUP3 ADD MSTORE PUSH1 0x64 SWAP1 REVERT JUMPDEST POP PUSH1 0x3 SLOAD PUSH1 0x4 CALLDATALOAD LT PUSH2 0x122 JUMP JUMPDEST PUSH1 0x0 DUP1 REVERT JUMPDEST CALLVALUE PUSH2 0x3E0 JUMPI PUSH1 0x20 CALLDATASIZE PUSH1 0x3 NOT ADD SLT PUSH2 0x3E0 JUMPI PUSH1 0x4 CALLDATALOAD PUSH1 0x0 SWAP1 DUP2 MSTORE PUSH1 0x20 DUP2 SWAP1 MSTORE PUSH1 0x40 SWAP1 KECCAK256 DUP1 SLOAD PUSH1 0x1 DUP3 ADD SLOAD PUSH1 0x1 PUSH1 0x1 PUSH1 0xA0 SHL SUB AND SWAP2 PUSH2 0x424 PUSH1 0x2 DUP3 ADD PUSH2 0x10E6 JUMP JUMPDEST PUSH2 0x470 PUSH2 0x433 PUSH1 0x3 DUP5 ADD PUSH2 0x10E6 JUMP JUMPDEST PUSH2 0x462 PUSH1 0xFF PUSH1 0x5 PUSH1 0x4 DUP8 ADD SLOAD SWAP7 ADD SLOAD AND SWAP4 PUSH1 0x40 MLOAD SWAP8 DUP9 SWAP8 DUP9 MSTORE PUSH1 0x20 DUP9 ADD MSTORE PUSH1 0xC0 PUSH1 0x40 DUP9 ADD MSTORE PUSH1 0xC0 DUP8 ADD SWAP1 PUSH2 0x1012 JUMP JUMPDEST SWAP1 DUP6 DUP3 SUB PUSH1 0x60 DUP8 ADD MSTORE PUSH2 0x1012 JUMP JUMPDEST SWAP2 PUSH1 0x80 DUP5 ADD MSTORE PUSH2 0x47F DUP2 PUSH2 0xFF2 JUMP JUMPDEST PUSH1 0xA0 DUP4 ADD MSTORE SUB SWAP1 RETURN JUMPDEST CALLVALUE PUSH2 0x3E0 JUMPI PUSH1 0x40 CALLDATASIZE PUSH1 0x3 NOT ADD SLT PUSH2 0x3E0 JUMPI PUSH1 0x4 CALLDATALOAD PUSH8 0xFFFFFFFFFFFFFFFF DUP2 GT PUSH2 0x3E0 JUMPI PUSH2 0x4B9 SWAP1 CALLDATASIZE SWAP1 PUSH1 0x4 ADD PUSH2 0x11D0 JUMP JUMPDEST PUSH1 0x24 CALLDATALOAD PUSH8 0xFFFFFFFFFFFFFFFF DUP2 GT PUSH2 0x3E0 JUMPI PUSH2 0x4D9 SWAP1 CALLDATASIZE SWAP1 PUSH1 0x4 ADD PUSH2 0x11D0 JUMP JUMPDEST PUSH1 0x3 SLOAD SWAP3 SWAP2 PUSH1 0x0 NOT DUP5 EQ PUSH2 0x88D JUMPI PUSH1 0x1 DUP5 ADD PUSH1 0x3 SSTORE PUSH1 0x40 MLOAD SWAP2 PUSH2 0x4FB DUP4 PUSH2 0x10A8 JUMP JUMPDEST DUP5 DUP4 MSTORE PUSH2 0x523 PUSH1 0x20 DUP5 ADD SWAP3 CALLER DUP5 MSTORE PUSH2 0x514 CALLDATASIZE DUP8 DUP11 PUSH2 0x11FE JUMP JUMPDEST SWAP3 PUSH1 0x40 DUP7 ADD SWAP4 DUP5 MSTORE CALLDATASIZE SWAP2 PUSH2 0x11FE JUMP JUMPDEST PUSH1 0x60 DUP5 ADD MSTORE TIMESTAMP PUSH1 0x80 DUP5 ADD MSTORE PUSH1 0x0 PUSH1 0xA0 DUP5 ADD MSTORE DUP5 PUSH1 0x0 MSTORE PUSH1 0x0 PUSH1 0x20 MSTORE PUSH1 0x40 PUSH1 0x0 KECCAK256 SWAP2 DUP4 MLOAD DUP4 SSTORE PUSH1 0x1 DUP4 ADD SWAP1 PUSH1 0x1 DUP1 PUSH1 0xA0 SHL SUB SWAP1 MLOAD AND PUSH12 0xFFFFFFFFFFFFFFFFFFFFFFFF PUSH1 0xA0 SHL DUP3 SLOAD AND OR SWAP1 SSTORE MLOAD DUP1 MLOAD SWAP1 PUSH8 0xFFFFFFFFFFFFFFFF DUP3 GT PUSH2 0x380 JUMPI DUP2 SWAP1 PUSH2 0x58F PUSH1 0x2 DUP6 ADD SLOAD PUSH2 0x1052 JUMP JUMPDEST PUSH1 0x1F DUP2 GT PUSH2 0x83A JUMPI JUMPDEST POP PUSH1 0x20 SWAP1 PUSH1 0x1F DUP4 GT PUSH1 0x1 EQ PUSH2 0x7C8 JUMPI PUSH1 0x0 SWAP3 PUSH2 0x7BD JUMPI JUMPDEST POP POP DUP2 PUSH1 0x1 SHL SWAP2 PUSH1 0x0 NOT SWAP1 PUSH1 0x3 SHL SHR NOT AND OR PUSH1 0x2 DUP3 ADD SSTORE JUMPDEST PUSH1 0x60 DUP3 ADD MLOAD DUP1 MLOAD SWAP1 PUSH8 0xFFFFFFFFFFFFFFFF DUP3 GT PUSH2 0x380 JUMPI PUSH2 0x5EB PUSH1 0x3 DUP5 ADD SLOAD PUSH2 0x1052 JUMP JUMPDEST PUSH1 0x1F DUP2 GT PUSH2 0x776 JUMPI JUMPDEST POP PUSH1 0x20 SWAP1 PUSH1 0x1F DUP4 GT PUSH1 0x1 EQ PUSH2 0x703 JUMPI SWAP2 DUP1 PUSH1 0xA0 SWAP5 SWAP3 PUSH1 0x5 SWAP5 PUSH1 0x0 SWAP3 PUSH2 0x6F8 JUMPI JUMPDEST POP POP DUP2 PUSH1 0x1 SHL SWAP2 PUSH1 0x0 NOT SWAP1 PUSH1 0x3 SHL SHR NOT AND OR PUSH1 0x3 DUP3 ADD SSTORE JUMPDEST PUSH1 0x80 DUP5 ADD MLOAD PUSH1 0x4 DUP3 ADD SSTORE ADD SWAP2 ADD MLOAD PUSH2 0x643 DUP2 PUSH2 0xFF2 JUMP JUMPDEST PUSH2 0x64C DUP2 PUSH2 0xFF2 JUMP JUMPDEST PUSH1 0xFF DUP1 NOT DUP4 SLOAD AND SWAP2 AND OR SWAP1 SSTORE CALLER PUSH1 0x0 MSTORE PUSH1 0x2 PUSH1 0x20 MSTORE PUSH1 0x40 PUSH1 0x0 KECCAK256 DUP1 SLOAD PUSH9 0x10000000000000000 DUP2 LT ISZERO PUSH2 0x380 JUMPI PUSH1 0x20 SWAP5 PUSH2 0x6AE DUP3 DUP7 SWAP5 PUSH1 0x1 PUSH32 0xA77D68FBCBEABC65166B703A20A3D464BC7AFBE9842DAE73426661FB9829C97E SWAP6 ADD DUP2 SSTORE PUSH2 0x11A2 JUMP JUMPDEST DUP2 SLOAD SWAP1 PUSH1 0x3 SHL SWAP1 DUP6 DUP3 SHL SWAP2 PUSH1 0x0 NOT SWAP1 SHL NOT AND OR SWAP1 SSTORE DUP4 PUSH1 0x40 MLOAD SWAP2 DUP8 DUP4 MSTORE DUP2 DUP9 DUP5 ADD MSTORE PUSH1 0x40 DUP4 ADD CALLDATACOPY PUSH1 0x0 PUSH1 0x40 DUP6 DUP4 ADD ADD MSTORE PUSH1 0x40 DUP2 CALLER SWAP6 PUSH1 0x1F DUP1 NOT SWAP2 ADD AND DUP2 ADD SUB ADD SWAP1 LOG3 PUSH1 0x40 MLOAD SWAP1 DUP2 MSTORE RETURN JUMPDEST ADD MLOAD SWAP1 POP DUP10 DUP1 PUSH2 0x614 JUMP JUMPDEST SWAP1 PUSH1 0x1F NOT DUP4 AND SWAP2 PUSH1 0x3 DUP6 ADD PUSH1 0x0 MSTORE PUSH1 0x20 PUSH1 0x0 KECCAK256 SWAP3 PUSH1 0x0 JUMPDEST DUP2 DUP2 LT PUSH2 0x75E JUMPI POP SWAP3 PUSH1 0x1 SWAP3 DUP6 SWAP3 PUSH1 0x5 SWAP7 PUSH1 0xA0 SWAP9 SWAP7 LT PUSH2 0x745 JUMPI JUMPDEST POP POP POP DUP2 SHL ADD PUSH1 0x3 DUP3 ADD SSTORE PUSH2 0x62C JUMP JUMPDEST ADD MLOAD PUSH1 0x0 NOT PUSH1 0xF8 DUP5 PUSH1 0x3 SHL AND SHR NOT AND SWAP1 SSTORE DUP10 DUP1 DUP1 PUSH2 0x735 JUMP JUMPDEST SWAP3 SWAP4 PUSH1 0x20 PUSH1 0x1 DUP2 SWAP3 DUP8 DUP7 ADD MLOAD DUP2 SSTORE ADD SWAP6 ADD SWAP4 ADD PUSH2 0x71A JUMP JUMPDEST PUSH1 0x3 DUP5 ADD PUSH1 0x0 MSTORE PUSH1 0x20 PUSH1 0x0 KECCAK256 PUSH1 0x1F DUP5 ADD PUSH1 0x5 SHR DUP2 ADD PUSH1 0x20 DUP6 LT PUSH2 0x7B6 JUMPI JUMPDEST PUSH1 0x1F DUP4 ADD PUSH1 0x5 SHR DUP3 ADD DUP2 LT PUSH2 0x7AA JUMPI POP POP PUSH2 0x5F4 JUMP JUMPDEST PUSH1 0x0 DUP2 SSTORE PUSH1 0x1 ADD PUSH2 0x794 JUMP JUMPDEST POP DUP1 PUSH2 0x794 JUMP JUMPDEST ADD MLOAD SWAP1 POP DUP8 DUP1 PUSH2 0x5AF JUMP JUMPDEST SWAP3 POP PUSH1 0x2 DUP5 ADD PUSH1 0x0 MSTORE PUSH1 0x20 PUSH1 0x0 KECCAK256 SWAP1 PUSH1 0x0 SWAP4 JUMPDEST PUSH1 0x1F NOT DUP5 AND DUP6 LT PUSH2 0x81F JUMPI PUSH1 0x1 SWAP5 POP DUP4 PUSH1 0x1F NOT DUP2 AND LT PUSH2 0x806 JUMPI JUMPDEST POP POP POP DUP2 SHL ADD PUSH1 0x2 DUP3 ADD SSTORE PUSH2 0x5C7 JUMP JUMPDEST ADD MLOAD PUSH1 0x0 NOT PUSH1 0xF8 DUP5 PUSH1 0x3 SHL AND SHR NOT AND SWAP1 SSTORE DUP8 DUP1 DUP1 PUSH2 0x7F6 JUMP JUMPDEST DUP2 DUP2 ADD MLOAD DUP4 SSTORE PUSH1 0x20 SWAP5 DUP6 ADD SWAP5 PUSH1 0x1 SWAP1 SWAP4 ADD SWAP3 SWAP1 SWAP2 ADD SWAP1 PUSH2 0x7DB JUMP JUMPDEST SWAP1 SWAP2 POP PUSH1 0x2 DUP5 ADD PUSH1 0x0 MSTORE PUSH1 0x20 PUSH1 0x0 KECCAK256 PUSH1 0x1F DUP5 ADD PUSH1 0x5 SHR DUP2 ADD PUSH1 0x20 DUP6 LT PUSH2 0x886 JUMPI JUMPDEST SWAP1 DUP5 SWAP4 SWAP3 SWAP2 JUMPDEST PUSH1 0x1F DUP4 ADD PUSH1 0x5 SHR DUP3 ADD DUP2 LT PUSH2 0x877 JUMPI POP POP PUSH2 0x598 JUMP JUMPDEST PUSH1 0x0 DUP2 SSTORE DUP6 SWAP5 POP PUSH1 0x1 ADD PUSH2 0x861 JUMP JUMPDEST POP DUP1 PUSH2 0x85B JUMP JUMPDEST PUSH4 0x4E487B71 PUSH1 0xE0 SHL PUSH1 0x0 MSTORE PUSH1 0x11 PUSH1 0x4 MSTORE PUSH1 0x24 PUSH1 0x0 REVERT JUMPDEST CALLVALUE PUSH2 0x3E0 JUMPI PUSH1 0x20 DUP1 PUSH1 0x3 NOT CALLDATASIZE ADD SLT PUSH2 0x3E0 JUMPI PUSH1 0x1 PUSH1 0x1 PUSH1 0xA0 SHL SUB PUSH2 0x8C5 PUSH2 0x118C JUMP JUMPDEST AND PUSH1 0x0 MSTORE PUSH1 0x2 DUP2 MSTORE PUSH1 0x40 PUSH1 0x0 KECCAK256 PUSH1 0x40 MLOAD SWAP1 DUP2 DUP4 DUP3 SLOAD SWAP2 DUP3 DUP2 MSTORE ADD SWAP1 DUP2 SWAP3 PUSH1 0x0 MSTORE DUP5 PUSH1 0x0 KECCAK256 SWAP1 PUSH1 0x0 JUMPDEST DUP7 DUP3 DUP3 LT PUSH2 0x943 JUMPI DUP7 DUP7 PUSH2 0x903 DUP3 DUP9 SUB DUP4 PUSH2 0x10C4 JUMP JUMPDEST PUSH1 0x40 MLOAD SWAP3 DUP4 SWAP3 DUP2 DUP5 ADD SWAP1 DUP3 DUP6 MSTORE MLOAD DUP1 SWAP2 MSTORE PUSH1 0x40 DUP5 ADD SWAP3 SWAP2 PUSH1 0x0 JUMPDEST DUP3 DUP2 LT PUSH2 0x92C JUMPI POP POP POP POP SUB SWAP1 RETURN JUMPDEST DUP4 MLOAD DUP6 MSTORE DUP7 SWAP6 POP SWAP4 DUP2 ADD SWAP4 SWAP3 DUP2 ADD SWAP3 PUSH1 0x1 ADD PUSH2 0x91D JUMP JUMPDEST DUP4 SLOAD DUP6 MSTORE SWAP1 SWAP4 ADD SWAP3 PUSH1 0x1 SWAP3 DUP4 ADD SWAP3 ADD PUSH2 0x8ED JUMP JUMPDEST CALLVALUE PUSH2 0x3E0 JUMPI PUSH1 0x20 DUP1 PUSH1 0x3 NOT CALLDATASIZE ADD SLT PUSH2 0x3E0 JUMPI PUSH1 0x4 CALLDATALOAD PUSH1 0x0 PUSH1 0xA0 PUSH1 0x40 MLOAD PUSH2 0x97C DUP2 PUSH2 0x10A8 JUMP JUMPDEST DUP3 DUP2 MSTORE DUP3 DUP6 DUP3 ADD MSTORE PUSH1 0x60 PUSH1 0x40 DUP3 ADD MSTORE PUSH1 0x60 DUP1 DUP3 ADD MSTORE DUP3 PUSH1 0x80 DUP3 ADD MSTORE ADD MSTORE DUP1 ISZERO ISZERO DUP1 PUSH2 0xA86 JUMPI JUMPDEST PUSH2 0x9AB SWAP1 PUSH2 0x127E JUMP JUMPDEST PUSH1 0x0 MSTORE PUSH1 0x0 DUP2 MSTORE PUSH1 0x40 PUSH1 0x0 KECCAK256 PUSH1 0x40 MLOAD SWAP1 PUSH2 0x9C4 DUP3 PUSH2 0x10A8 JUMP JUMPDEST DUP1 SLOAD DUP3 MSTORE PUSH1 0x1 DUP2 ADD SLOAD PUSH1 0x1 PUSH1 0x1 PUSH1 0xA0 SHL SUB SWAP1 DUP2 AND DUP5 DUP5 ADD SWAP1 DUP2 MSTORE SWAP1 PUSH2 0xA6C SWAP1 PUSH2 0xA59 PUSH2 0x9F2 PUSH1 0x2 DUP7 ADD PUSH2 0x10E6 JUMP JUMPDEST PUSH1 0x40 DUP8 ADD SWAP1 DUP2 MSTORE PUSH2 0xA05 PUSH1 0x3 DUP8 ADD PUSH2 0x10E6 JUMP JUMPDEST SWAP3 PUSH1 0x60 DUP9 ADD SWAP4 DUP5 MSTORE PUSH1 0xFF PUSH1 0x5 PUSH1 0x4 DUP10 ADD SLOAD SWAP9 PUSH1 0x80 DUP12 ADD SWAP10 DUP11 MSTORE ADD SLOAD AND SWAP6 PUSH1 0xA0 DUP10 ADD SWAP7 PUSH2 0xA30 DUP2 PUSH2 0xFF2 JUMP JUMPDEST DUP8 MSTORE PUSH1 0x40 MLOAD SWAP10 DUP11 SWAP10 DUP2 DUP12 MSTORE MLOAD SWAP1 DUP11 ADD MSTORE MLOAD AND PUSH1 0x40 DUP9 ADD MSTORE MLOAD PUSH1 0xC0 PUSH1 0x60 DUP9 ADD MSTORE PUSH1 0xE0 DUP8 ADD SWAP1 PUSH2 0x1012 JUMP JUMPDEST SWAP1 MLOAD DUP6 DUP3 SUB PUSH1 0x1F NOT ADD PUSH1 0x80 DUP8 ADD MSTORE PUSH2 0x1012 JUMP JUMPDEST SWAP2 MLOAD PUSH1 0xA0 DUP5 ADD MSTORE MLOAD PUSH2 0xA7D DUP2 PUSH2 0xFF2 JUMP JUMPDEST PUSH1 0xC0 DUP4 ADD MSTORE SUB SWAP1 RETURN JUMPDEST POP PUSH1 0x3 SLOAD DUP2 LT PUSH2 0x9A2 JUMP JUMPDEST CALLVALUE PUSH2 0x3E0 JUMPI PUSH1 0x40 CALLDATASIZE PUSH1 0x3 NOT ADD SLT PUSH2 0x3E0 JUMPI PUSH2 0xAAA PUSH2 0x118C JUMP JUMPDEST PUSH1 0x1 PUSH1 0x1 PUSH1 0xA0 SHL SUB AND PUSH1 0x0 SWAP1 DUP2 MSTORE PUSH1 0x2 PUSH1 0x20 MSTORE PUSH1 0x40 SWAP1 KECCAK256 DUP1 SLOAD PUSH1 0x24 CALLDATALOAD SWAP2 SWAP1 DUP3 LT ISZERO PUSH2 0x3E0 JUMPI PUSH1 0x20 SWAP2 PUSH2 0xADB SWAP2 PUSH2 0x11A2 JUMP JUMPDEST SWAP1 SLOAD PUSH1 0x40 MLOAD SWAP2 PUSH1 0x3 SHL SHR DUP2 MSTORE RETURN JUMPDEST CALLVALUE PUSH2 0x3E0 JUMPI PUSH1 0x0 CALLDATASIZE PUSH1 0x3 NOT ADD SLT PUSH2 0x3E0 JUMPI PUSH1 0x4 SLOAD PUSH1 0x40 MLOAD PUSH1 0x1 PUSH1 0x1 PUSH1 0xA0 SHL SUB SWAP1 SWAP2 AND DUP2 MSTORE PUSH1 0x20 SWAP1 RETURN JUMPDEST CALLVALUE PUSH2 0x3E0 JUMPI PUSH1 0x0 CALLDATASIZE PUSH1 0x3 NOT ADD SLT PUSH2 0x3E0 JUMPI PUSH1 0x3 SLOAD PUSH1 0x0 NOT DUP2 ADD SWAP1 DUP2 GT PUSH2 0x88D JUMPI PUSH1 0x20 SWAP1 PUSH1 0x40 MLOAD SWAP1 DUP2 MSTORE RETURN JUMPDEST CALLVALUE PUSH2 0x3E0 JUMPI PUSH1 0x0 CALLDATASIZE PUSH1 0x3 NOT ADD SLT PUSH2 0x3E0 JUMPI PUSH1 0x20 PUSH1 0x3 SLOAD PUSH1 0x40 MLOAD SWAP1 DUP2 MSTORE RETURN JUMPDEST CALLVALUE PUSH2 0x3E0 JUMPI PUSH1 0x20 CALLDATASIZE PUSH1 0x3 NOT ADD SLT PUSH2 0x3E0 JUMPI PUSH1 0x4 CALLDATALOAD PUSH2 0xB84 PUSH1 0x1 DUP1 PUSH1 0xA0 SHL SUB PUSH1 0x4 SLOAD AND CALLER EQ PUSH2 0x1245 JUMP JUMPDEST DUP1 ISZERO ISZERO DUP1 PUSH2 0xC37 JUMPI JUMPDEST PUSH2 0xB96 SWAP1 PUSH2 0x127E JUMP JUMPDEST DUP1 PUSH1 0x0 MSTORE PUSH1 0x0 PUSH1 0x20 MSTORE PUSH1 0xFF PUSH1 0x5 PUSH1 0x40 PUSH1 0x0 KECCAK256 ADD SLOAD AND PUSH2 0xBB4 DUP2 PUSH2 0xFF2 JUMP JUMPDEST PUSH2 0xBFB JUMPI DUP1 PUSH1 0x0 MSTORE PUSH1 0x0 PUSH1 0x20 MSTORE PUSH1 0x5 PUSH1 0x40 PUSH1 0x0 KECCAK256 ADD PUSH1 0x1 PUSH1 0xFF NOT DUP3 SLOAD AND OR SWAP1 SSTORE PUSH32 0xCE614CE1271011A18A325FF95246C64FE33780985159627D996036735DF6F588 PUSH1 0x0 DUP1 LOG2 STOP JUMPDEST PUSH1 0x40 MLOAD PUSH3 0x461BCD PUSH1 0xE5 SHL DUP2 MSTORE PUSH1 0x20 PUSH1 0x4 DUP3 ADD MSTORE PUSH1 0x14 PUSH1 0x24 DUP3 ADD MSTORE PUSH20 0x43617365206D7573742062652070656E64696E67 PUSH1 0x60 SHL PUSH1 0x44 DUP3 ADD MSTORE PUSH1 0x64 SWAP1 REVERT JUMPDEST POP PUSH1 0x3 SLOAD DUP2 LT PUSH2 0xB8D JUMP JUMPDEST CALLVALUE PUSH2 0x3E0 JUMPI PUSH1 0x20 CALLDATASIZE PUSH1 0x3 NOT ADD SLT PUSH2 0x3E0 JUMPI PUSH1 0x4 CALLDATALOAD PUSH1 0x0 MSTORE PUSH1 0x1 PUSH1 0x20 MSTORE PUSH1 0x40 PUSH1 0x0 KECCAK256 DUP1 SLOAD PUSH1 0xFF PUSH1 0x1 DUP4 ADD SLOAD AND SWAP2 PUSH2 0xC7A PUSH1 0x2 DUP3 ADD PUSH2 0x10E6 JUMP JUMPDEST PUSH2 0xCB2 PUSH1 0xFF PUSH1 0x4 PUSH1 0x3 DUP6 ADD SLOAD SWAP5 ADD SLOAD AND SWAP2 PUSH1 0x40 MLOAD SWAP6 DUP7 SWAP6 DUP7 MSTORE PUSH2 0xC9C DUP2 PUSH2 0xFF2 JUMP JUMPDEST PUSH1 0x20 DUP7 ADD MSTORE PUSH1 0xA0 PUSH1 0x40 DUP7 ADD MSTORE PUSH1 0xA0 DUP6 ADD SWAP1 PUSH2 0x1012 JUMP JUMPDEST SWAP2 PUSH1 0x60 DUP5 ADD MSTORE ISZERO ISZERO PUSH1 0x80 DUP4 ADD MSTORE SUB SWAP1 RETURN JUMPDEST CALLVALUE PUSH2 0x3E0 JUMPI PUSH1 0x20 DUP1 PUSH1 0x3 NOT CALLDATASIZE ADD SLT PUSH2 0x3E0 JUMPI PUSH1 0x4 CALLDATALOAD PUSH1 0x0 PUSH1 0x80 PUSH1 0x40 MLOAD PUSH2 0xCE8 DUP2 PUSH2 0x108C JUMP JUMPDEST DUP3 DUP2 MSTORE DUP3 DUP6 DUP3 ADD MSTORE PUSH1 0x60 PUSH1 0x40 DUP3 ADD MSTORE DUP3 PUSH1 0x60 DUP3 ADD MSTORE ADD MSTORE DUP1 ISZERO ISZERO DUP1 PUSH2 0xE0C JUMPI JUMPDEST PUSH2 0xD11 SWAP1 PUSH2 0x127E JUMP JUMPDEST DUP1 PUSH1 0x0 MSTORE PUSH1 0x1 DUP3 MSTORE PUSH1 0x3 PUSH1 0x40 PUSH1 0x0 KECCAK256 ADD SLOAD ISZERO PUSH2 0xDD1 JUMPI PUSH1 0x0 MSTORE PUSH1 0x1 DUP2 MSTORE PUSH1 0x40 PUSH1 0x0 KECCAK256 PUSH1 0x40 MLOAD SWAP1 PUSH2 0xD40 DUP3 PUSH2 0x108C JUMP JUMPDEST DUP1 SLOAD DUP3 MSTORE PUSH1 0xFF PUSH1 0x1 DUP3 ADD SLOAD AND DUP4 DUP4 ADD SWAP1 PUSH2 0xD59 DUP2 PUSH2 0xFF2 JUMP JUMPDEST DUP2 MSTORE PUSH2 0xDBE PUSH2 0xD6A PUSH1 0x2 DUP5 ADD PUSH2 0x10E6 JUMP JUMPDEST PUSH1 0x40 DUP6 ADD SWAP1 DUP2 MSTORE PUSH1 0xFF PUSH1 0x4 PUSH1 0x3 DUP7 ADD SLOAD SWAP6 PUSH1 0x60 DUP9 ADD SWAP7 DUP8 MSTORE ADD SLOAD AND SWAP3 PUSH1 0x80 DUP7 ADD SWAP4 ISZERO ISZERO DUP5 MSTORE PUSH1 0x40 MLOAD SWAP7 DUP8 SWAP7 DUP2 DUP9 MSTORE MLOAD SWAP1 DUP8 ADD MSTORE MLOAD PUSH2 0xDA7 DUP2 PUSH2 0xFF2 JUMP JUMPDEST PUSH1 0x40 DUP7 ADD MSTORE MLOAD PUSH1 0xA0 PUSH1 0x60 DUP7 ADD MSTORE PUSH1 0xC0 DUP6 ADD SWAP1 PUSH2 0x1012 JUMP JUMPDEST SWAP2 MLOAD PUSH1 0x80 DUP5 ADD MSTORE MLOAD ISZERO ISZERO PUSH1 0xA0 DUP4 ADD MSTORE SUB SWAP1 RETURN JUMPDEST PUSH1 0x40 MLOAD PUSH3 0x461BCD PUSH1 0xE5 SHL DUP2 MSTORE PUSH1 0x4 DUP2 ADD DUP4 SWAP1 MSTORE PUSH1 0x13 PUSH1 0x24 DUP3 ADD MSTORE PUSH19 0x139BC81D995C991A58DD081C9958DBDC991959 PUSH1 0x6A SHL PUSH1 0x44 DUP3 ADD MSTORE PUSH1 0x64 SWAP1 REVERT JUMPDEST POP PUSH1 0x3 SLOAD DUP2 LT PUSH2 0xD08 JUMP JUMPDEST CALLVALUE PUSH2 0x3E0 JUMPI PUSH1 0x20 CALLDATASIZE PUSH1 0x3 NOT ADD SLT PUSH2 0x3E0 JUMPI PUSH1 0x4 CALLDATALOAD DUP1 ISZERO ISZERO DUP1 PUSH2 0xE5A JUMPI JUMPDEST PUSH2 0xE3D SWAP1 PUSH2 0x127E JUMP JUMPDEST PUSH1 0x0 MSTORE PUSH1 0x1 PUSH1 0x20 MSTORE PUSH1 0x20 PUSH1 0x3 PUSH1 0x40 PUSH1 0x0 KECCAK256 ADD SLOAD ISZERO ISZERO PUSH1 0x40 MLOAD SWAP1 DUP2 MSTORE RETURN JUMPDEST POP PUSH1 0x3 SLOAD DUP2 LT PUSH2 0xE34 JUMP JUMPDEST CALLVALUE PUSH2 0x3E0 JUMPI PUSH1 0x20 DUP1 PUSH1 0x3 NOT CALLDATASIZE ADD SLT PUSH2 0x3E0 JUMPI PUSH1 0x4 CALLDATALOAD SWAP1 DUP2 ISZERO ISZERO DUP1 PUSH2 0xFE7 JUMPI JUMPDEST PUSH2 0xE8D SWAP1 PUSH2 0x127E JUMP JUMPDEST PUSH1 0x0 DUP3 DUP2 MSTORE DUP1 DUP3 MSTORE PUSH1 0x40 SWAP1 KECCAK256 PUSH1 0x1 ADD SLOAD PUSH1 0x1 PUSH1 0x1 PUSH1 0xA0 SHL SUB AND CALLER SUB PUSH2 0xFA3 JUMPI DUP2 PUSH1 0x0 MSTORE PUSH1 0x0 DUP2 MSTORE PUSH1 0x2 PUSH1 0xFF PUSH1 0x5 PUSH1 0x40 PUSH1 0x0 KECCAK256 ADD SLOAD AND PUSH2 0xECB DUP2 PUSH2 0xFF2 JUMP JUMPDEST SUB PUSH2 0xF66 JUMPI DUP2 PUSH1 0x0 MSTORE PUSH1 0x1 DUP2 MSTORE PUSH1 0xFF PUSH1 0x4 PUSH1 0x40 PUSH1 0x0 KECCAK256 ADD SLOAD AND ISZERO PUSH2 0xF2A JUMPI PUSH1 0x0 SWAP1 DUP3 DUP3 MSTORE MSTORE PUSH1 0x5 PUSH1 0x40 PUSH1 0x0 KECCAK256 ADD PUSH1 0x3 PUSH1 0xFF NOT DUP3 SLOAD AND OR SWAP1 SSTORE PUSH32 0x92924A552A1C83F95DF518F16C6F1BDFC61A7B7323255EDE1EF8F3DFE2DC437C PUSH1 0x0 DUP1 LOG2 STOP JUMPDEST PUSH1 0x64 SWAP1 PUSH1 0x40 MLOAD SWAP1 PUSH3 0x461BCD PUSH1 0xE5 SHL DUP3 MSTORE PUSH1 0x4 DUP3 ADD MSTORE PUSH1 0x15 PUSH1 0x24 DUP3 ADD MSTORE PUSH21 0x15995C991A58DD081B5D5CDD08189948199A5B985B PUSH1 0x5A SHL PUSH1 0x44 DUP3 ADD MSTORE REVERT JUMPDEST PUSH1 0x64 SWAP1 PUSH1 0x40 MLOAD SWAP1 PUSH3 0x461BCD PUSH1 0xE5 SHL DUP3 MSTORE PUSH1 0x4 DUP3 ADD MSTORE PUSH1 0x16 PUSH1 0x24 DUP3 ADD MSTORE PUSH22 0x10D85CD9481B5D5CDD0818994818DBDB5C1B195D1959 PUSH1 0x52 SHL PUSH1 0x44 DUP3 ADD MSTORE REVERT JUMPDEST PUSH1 0x64 SWAP1 PUSH1 0x40 MLOAD SWAP1 PUSH3 0x461BCD PUSH1 0xE5 SHL DUP3 MSTORE PUSH1 0x4 DUP3 ADD MSTORE PUSH1 0x19 PUSH1 0x24 DUP3 ADD MSTORE PUSH32 0x4F6E6C7920706C61696E746966662063616E2061707065616C00000000000000 PUSH1 0x44 DUP3 ADD MSTORE REVERT JUMPDEST POP PUSH1 0x3 SLOAD DUP3 LT PUSH2 0xE84 JUMP JUMPDEST PUSH1 0x4 GT ISZERO PUSH2 0xFFC JUMPI JUMP JUMPDEST PUSH4 0x4E487B71 PUSH1 0xE0 SHL PUSH1 0x0 MSTORE PUSH1 0x21 PUSH1 0x4 MSTORE PUSH1 0x24 PUSH1 0x0 REVERT JUMPDEST SWAP2 SWAP1 DUP3 MLOAD SWAP3 DUP4 DUP3 MSTORE PUSH1 0x0 JUMPDEST DUP5 DUP2 LT PUSH2 0x103E JUMPI POP POP DUP3 PUSH1 0x0 PUSH1 0x20 DUP1 SWAP5 SWAP6 DUP5 ADD ADD MSTORE PUSH1 0x1F DUP1 NOT SWAP2 ADD AND ADD ADD SWAP1 JUMP JUMPDEST PUSH1 0x20 DUP2 DUP4 ADD DUP2 ADD MLOAD DUP5 DUP4 ADD DUP3 ADD MSTORE ADD PUSH2 0x101D JUMP JUMPDEST SWAP1 PUSH1 0x1 DUP3 DUP2 SHR SWAP3 AND DUP1 ISZERO PUSH2 0x1082 JUMPI JUMPDEST PUSH1 0x20 DUP4 LT EQ PUSH2 0x106C JUMPI JUMP JUMPDEST PUSH4 0x4E487B71 PUSH1 0xE0 SHL PUSH1 0x0 MSTORE PUSH1 0x22 PUSH1 0x4 MSTORE PUSH1 0x24 PUSH1 0x0 REVERT JUMPDEST SWAP2 PUSH1 0x7F AND SWAP2 PUSH2 0x1061 JUMP JUMPDEST PUSH1 0xA0 DUP2 ADD SWAP1 DUP2 LT PUSH8 0xFFFFFFFFFFFFFFFF DUP3 GT OR PUSH2 0x380 JUMPI PUSH1 0x40 MSTORE JUMP JUMPDEST PUSH1 0xC0 DUP2 ADD SWAP1 DUP2 LT PUSH8 0xFFFFFFFFFFFFFFFF DUP3 GT OR PUSH2 0x380 JUMPI PUSH1 0x40 MSTORE JUMP JUMPDEST SWAP1 PUSH1 0x1F DUP1 NOT SWAP2 ADD AND DUP2 ADD SWAP1 DUP2 LT PUSH8 0xFFFFFFFFFFFFFFFF DUP3 GT OR PUSH2 0x380 JUMPI PUSH1 0x40 MSTORE JUMP JUMPDEST SWAP1 PUSH1 0x40 MLOAD SWAP2 DUP3 PUSH1 0x0 DUP3 SLOAD SWAP3 PUSH2 0x10FA DUP5 PUSH2 0x1052 JUMP JUMPDEST SWAP1 DUP2 DUP5 MSTORE PUSH1 0x1 SWAP5 DUP6 DUP2 AND SWAP1 DUP2 PUSH1 0x0 EQ PUSH2 0x1169 JUMPI POP PUSH1 0x1 EQ PUSH2 0x1126 JUMPI JUMPDEST POP POP PUSH2 0x1124 SWAP3 POP SUB DUP4 PUSH2 0x10C4 JUMP JUMPDEST JUMP JUMPDEST SWAP1 SWAP4 SWAP2 POP PUSH1 0x0 MSTORE PUSH1 0x20 SWAP1 DUP2 PUSH1 0x0 KECCAK256 SWAP4 PUSH1 0x0 SWAP2 JUMPDEST DUP2 DUP4 LT PUSH2 0x1151 JUMPI POP POP PUSH2 0x1124 SWAP4 POP DUP3 ADD ADD CODESIZE DUP1 PUSH2 0x1116 JUMP JUMPDEST DUP6 SLOAD DUP9 DUP5 ADD DUP6 ADD MSTORE SWAP5 DUP6 ADD SWAP5 DUP8 SWAP5 POP SWAP2 DUP4 ADD SWAP2 PUSH2 0x1139 JUMP JUMPDEST SWAP2 POP POP PUSH2 0x1124 SWAP5 POP PUSH1 0x20 SWAP3 POP PUSH1 0xFF NOT AND DUP3 DUP5 ADD MSTORE ISZERO ISZERO PUSH1 0x5 SHL DUP3 ADD ADD CODESIZE DUP1 PUSH2 0x1116 JUMP JUMPDEST PUSH1 0x4 CALLDATALOAD SWAP1 PUSH1 0x1 PUSH1 0x1 PUSH1 0xA0 SHL SUB DUP3 AND DUP3 SUB PUSH2 0x3E0 JUMPI JUMP JUMPDEST DUP1 SLOAD DUP3 LT ISZERO PUSH2 0x11BA JUMPI PUSH1 0x0 MSTORE PUSH1 0x20 PUSH1 0x0 KECCAK256 ADD SWAP1 PUSH1 0x0 SWAP1 JUMP JUMPDEST PUSH4 0x4E487B71 PUSH1 0xE0 SHL PUSH1 0x0 MSTORE PUSH1 0x32 PUSH1 0x4 MSTORE PUSH1 0x24 PUSH1 0x0 REVERT JUMPDEST SWAP2 DUP2 PUSH1 0x1F DUP5 ADD SLT ISZERO PUSH2 0x3E0 JUMPI DUP3 CALLDATALOAD SWAP2 PUSH8 0xFFFFFFFFFFFFFFFF DUP4 GT PUSH2 0x3E0 JUMPI PUSH1 0x20 DUP4 DUP2 DUP7 ADD SWAP6 ADD ADD GT PUSH2 0x3E0 JUMPI JUMP JUMPDEST SWAP3 SWAP2 SWAP3 PUSH8 0xFFFFFFFFFFFFFFFF DUP3 GT PUSH2 0x380 JUMPI PUSH1 0x40 MLOAD SWAP2 PUSH2 0x1228 PUSH1 0x1F DUP3 ADD PUSH1 0x1F NOT AND PUSH1 0x20 ADD DUP5 PUSH2 0x10C4 JUMP JUMPDEST DUP3 SWAP5 DUP2 DUP5 MSTORE DUP2 DUP4 ADD GT PUSH2 0x3E0 JUMPI DUP3 DUP2 PUSH1 0x20 SWAP4 DUP5 PUSH1 0x0 SWAP7 ADD CALLDATACOPY ADD ADD MSTORE JUMP JUMPDEST ISZERO PUSH2 0x124C JUMPI JUMP JUMPDEST PUSH1 0x40 MLOAD PUSH3 0x461BCD PUSH1 0xE5 SHL DUP2 MSTORE PUSH1 0x20 PUSH1 0x4 DUP3 ADD MSTORE PUSH1 0xA PUSH1 0x24 DUP3 ADD MSTORE PUSH10 0x27B7363C9037BBB732B9 PUSH1 0xB1 SHL PUSH1 0x44 DUP3 ADD MSTORE PUSH1 0x64 SWAP1 REVERT JUMPDEST ISZERO PUSH2 0x1285 JUMPI JUMP JUMPDEST PUSH1 0x40 MLOAD PUSH3 0x461BCD PUSH1 0xE5 SHL DUP2 MSTORE PUSH1 0x20 PUSH1 0x4 DUP3 ADD MSTORE PUSH1 0x13 PUSH1 0x24 DUP3 ADD MSTORE PUSH19 0x10D85CD948191BD95CC81B9BDD08195E1A5CDD PUSH1 0x6A SHL PUSH1 0x44 DUP3 ADD MSTORE PUSH1 0x64 SWAP1 REVERT INVALID LOG2 PUSH5 0x6970667358 0x22 SLT KECCAK256 0xE4 PREVRANDAO BALANCE SWAP11 0xEE SDIV 0x1F BYTE 0xF8 STATICCALL 0xBD GT SWAP1 0xD8 0xC7 PUSH10 0xCD93D1F83609ADC34700 CALLDATACOPY 0x29 LT 0x5D 0x24 PUSH10 0x64736F6C634300081300 CALLER "},"methodIdentifiers":{"appealCase(uint256)":"091951dc","cases(uint256)":"f09790dd","fileCase(string,string)":"e9e63ac1","getCase(uint256)":"a91a1080","getTotalCases()":"7a69b32d","getUserCases(address)":"e1075ed3","getVerdict(uint256)":"33f3e74b","hasVerdict(uint256)":"16f0ca7e","nextCaseId()":"6350eae8","owner()":"8da5cb5b","recordVerdict(uint256,uint8,string,bool)":"f5bcc9e0","startTrial(uint256)":"42912c9e","userCases(address,uint256)":"941dc515","verdicts(uint256)":"3e0204fe"}}}}}