{
  "_format": "hh-sol-artifact-1",
  "contractName": "RumbleCourt",
  "sourceName": "contracts/RumbleCourt.sol",
  "abi": [
    {
      "inputs": [],
      "stateMutability": "nonpayable",
      "type": "constructor"
    },
    {
      "anonymous": false,
      "inputs": [
        {
          "indexed": true,
          "internalType": "uint256",
          "name": "caseId",
          "type": "uint256"
        }
      ],
      "name": "CaseAppealed",
      "type": "event"
    },
    {
      "anonymous": false,
      "inputs": [
        {
          "indexed": true,
          "internalType": "uint256",
          "name": "caseId",
          "type": "uint256"
        },
        {
          "indexed": true,
          "internalType": "address",
          "name": "plaintiff",
          "type": "address"
        },
        {
          "indexed": false,
          "internalType": "string",
          "name": "caseTitle",
          "type": "string"
        }
      ],
      "name": "CaseFiled",
      "type": "event"
    },
    {
      "anonymous": false,
      "inputs": [
        {
          "indexed": true,
          "internalType": "uint256",
          "name": "caseId",
          "type": "uint256"
        }
      ],
      "name": "TrialStarted",
      "type": "event"
    },
    {
      "anonymous": false,
      "inputs": [
        {
          "indexed": true,
          "internalType": "uint256",
          "name": "caseId",
          "type": "uint256"
        },
        {
          "indexed": false,
          "internalType": "enum RumbleCourt.VerdictType",
          "name": "verdictType",
          "type": "uint8"
        },
        {
          "indexed": false,
          "internalType": "bool",
          "name": "isFinal",
          "type": "bool"
        }
      ],
      "name": "VerdictRecorded",
      "type": "event"
    },
    {
      "inputs": [
        {
          "internalType": "uint256",
          "name": "caseId",
          "type": "uint256"
        }
      ],
      "name": "appealCase",
      "outputs": [],
      "stateMutability": "nonpayable",
      "type": "function"
    },
    {
      "inputs": [
        {
          "internalType": "uint256",
          "name": "",
          "type": "uint256"
        }
      ],
      "name": "cases",
      "outputs": [
        {
          "internalType": "uint256",
          "name": "caseId",
          "type": "uint256"
        },
        {
          "internalType": "address",
          "name": "plaintiff",
          "type": "address"
        },
        {
          "internalType": "string",
          "name": "caseTitle",
          "type": "string"
        },
        {
          "internalType": "string",
          "name": "evidenceHash",
          "type": "string"
        },
        {
          "internalType": "uint256",
          "name": "filedAt",
          "type": "uint256"
        },
        {
          "internalType": "enum RumbleCourt.CaseStatus",
          "name": "status",
          "type": "uint8"
        }
      ],
      "stateMutability": "view",
      "type": "function"
    },
    {
      "inputs": [
        {
          "internalType": "string",
          "name": "caseTitle",
          "type": "string"
        },
        {
          "internalType": "string",
          "name": "evidenceHash",
          "type": "string"
        }
      ],
      "name": "fileCase",
      "outputs": [
        {
          "internalType": "uint256",
          "name": "caseId",
          "type": "uint256"
        }
      ],
      "stateMutability": "nonpayable",
      "type": "function"
    },
    {
      "inputs": [
        {
          "internalType": "uint256",
          "name": "caseId",
          "type": "uint256"
        }
      ],
      "name": "getCase",
      "outputs": [
        {
          "components": [
            {
              "internalType": "uint256",
              "name": "caseId",
              "type": "uint256"
            },
            {
              "internalType": "address",
              "name": "plaintiff",
              "type": "address"
            },
            {
              "internalType": "string",
              "name": "caseTitle",
              "type": "string"
            },
            {
              "internalType": "string",
              "name": "evidenceHash",
              "type": "string"
            },
            {
              "internalType": "uint256",
              "name": "filedAt",
              "type": "uint256"
            },
            {
              "internalType": "enum RumbleCourt.CaseStatus",
              "name": "status",
              "type": "uint8"
            }
          ],
          "internalType": "struct RumbleCourt.Case",
          "name": "",
          "type": "tuple"
        }
      ],
      "stateMutability": "view",
      "type": "function"
    },
    {
      "inputs": [],
      "name": "getTotalCases",
      "outputs": [
        {
          "internalType": "uint256",
          "name": "",
          "type": "uint256"
        }
      ],
      "stateMutability": "view",
      "type": "function"
    },
    {
      "inputs": [
        {
          "internalType": "address",
          "name": "user",
          "type": "address"
        }
      ],
      "name": "getUserCases",
      "outputs": [
        {
          "internalType": "uint256[]",
          "name": "",
          "type": "uint256[]"
        }
      ],
      "stateMutability": "view",
      "type": "function"
    },
    {
      "inputs": [
        {
          "internalType": "uint256",
          "name": "caseId",
          "type": "uint256"
        }
      ],
      "name": "getVerdict",
      "outputs": [
        {
          "components": [
            {
              "internalType": "uint256",
              "name": "caseId",
              "type": "uint256"
            },
            {
              "internalType": "enum RumbleCourt.VerdictType",
              "name": "verdictType",
              "type": "uint8"
            },
            {
              "internalType": "string",
              "name": "reasoning",
              "type": "string"
            },
            {
              "internalType": "uint256",
              "name": "timestamp",
              "type": "uint256"
            },
            {
              "internalType": "bool",
              "name": "isFinal",
              "type": "bool"
            }
          ],
          "internalType": "struct RumbleCourt.Verdict",
          "name": "",
          "type": "tuple"
        }
      ],
      "stateMutability": "view",
      "type": "function"
    },
    {
      "inputs": [
        {
          "internalType": "uint256",
          "name": "caseId",
          "type": "uint256"
        }
      ],
      "name": "hasVerdict",
      "outputs": [
        {
          "internalType": "bool",
          "name": "",
          "type": "bool"
        }
      ],
      "stateMutability": "view",
      "type": "function"
    },
    {
      "inputs": [],
      "name": "nextCaseId",
      "outputs": [
        {
          "internalType": "uint256",
          "name": "",
          "type": "uint256"
        }
      ],
      "stateMutability": "view",
      "type": "function"
    },
    {
      "inputs": [],
      "name": "owner",
      "outputs": [
        {
          "internalType": "address",
          "name": "",
          "type": "address"
        }
      ],
      "stateMutability": "view",
      "type": "function"
    },
    {
      "inputs": [
        {
          "internalType": "uint256",
          "name": "caseId",
          "type": "uint256"
        },
        {
          "internalType": "enum RumbleCourt.VerdictType",
          "name": "verdictType",
          "type": "uint8"
        },
        {
          "internalType": "string",
          "name": "reasoning",
          "type": "string"
        },
        {
          "internalType": "bool",
          "name": "isFinal",
          "type": "bool"
        }
      ],
      "name": "recordVerdict",
      "outputs": [],
      "stateMutability": "nonpayable",
      "type": "function"
    },
    {
      "inputs": [
        {
          "internalType": "uint256",
          "name": "caseId",
          "type": "uint256"
        }
      ],
      "name": "startTrial",
      "outputs": [],
      "stateMutability": "nonpayable",
      "type": "function"
    },
    {
      "inputs": [
        {
          "internalType": "address",
          "name": "",
          "type": "address"
        },
        {
          "internalType": "uint256",
          "name": "",
          "type": "uint256"
        }
      ],
      "name": "userCases",
      "outputs": [
        {
          "internalType": "uint256",
          "name": "",
          "type": "uint256"
        }
      ],
      "stateMutability": "view",
      "type": "function"
    },
    {
      "inputs": [
        {
          "internalType": "uint256",
          "name": "",
          "type": "uint256"
        }
      ],
      "name": "verdicts",
      "outputs": [
        {
          "internalType": "uint256",
          "name": "caseId",
          "type": "uint256"
        },
        {
          "internalType": "enum RumbleCourt.VerdictType",
          "name": "verdictType",
          "type": "uint8"
        },
        {
          "internalType": "string",
          "name": "reasoning",
          "type": "string"
        },
        {
          "internalType": "uint256",
          "name": "timestamp",
          "type": "uint256"
        },
        {
          "internalType": "bool",
          "name": "isFinal",
          "type": "bool"
        }
      ],
      "stateMutability": "view",
      "type": "function"
    }
  ],
  "bytecode": "0x6080806040523461002d576001600355600480546001600160a01b031916331790556112f690816100338239f35b600080fdfe6080604052600436101561001257600080fd5b60003560e01c8063091951dc14610e6557806316f0ca7e14610e1757806333f3e74b14610cc35780633e0204fe14610c4257806342912c9e14610b5b5780636350eae814610b3d5780637a69b32d14610b125780638da5cb5b14610ae9578063941dc51514610a91578063a91a108014610957578063e1075ed3146108a3578063e9e63ac114610488578063f09790dd146103e55763f5bcc9e0146100b657600080fd5b346103e05760803660031901126103e057600460243510156103e05767ffffffffffffffff6044358181116103e0576100f39036906004016111d0565b90916064351515606435036103e05761011760018060a01b03600454163314611245565b6004351515806103d3575b61012b9061127e565b6004356000526000602052600160ff6005604060002001541661014d81610ff2565b0361039657610183604051936101628561108c565b60043585526020850193610177602435610ff2565b602435855236916111fe565b60408401908152426060850152606435151560808501526004356000526001602052604060002092845184556001840190516101be81610ff2565b6101c781610ff2565b60ff80198354169116179055518051918211610380576101ea6002840154611052565b601f8111610339575b50602090601f83116001146102c4579180608094926004946000926102b9575b50508160011b916000199060031b1c19161760028201555b6060840151600382015501910151151560ff80198354169116179055606435610296575b60405161025d602435610ff2565b6024358152606435151560208201527f90bb86f606f9d02c719c20806a8febf21ae3937a26f2a29ad70d6c6e9b1399c5604060043592a2005b60043560005260006020526005604060002001600260ff1982541617905561024f565b015190503880610213565b906002840160005260206000209160005b601f19851681106103215750926080949260019260049583601f19811610610308575b505050811b01600282015561022b565b015160001960f88460031b161c191690553880806102f8565b919260206001819286850151815501940192016102d5565b600284016000526020600020601f840160051c810160208510610379575b601f830160051c8201811061036d5750506101f3565b60008155600101610357565b5080610357565b634e487b7160e01b600052604160045260246000fd5b60405162461bcd60e51b815260206004820152601560248201527410d85cd9481b5d5cdd081899481a5b881d1c9a585b605a1b6044820152606490fd5b5060035460043510610122565b600080fd5b346103e05760203660031901126103e0576004356000908152602081905260409020805460018201546001600160a01b031691610424600282016110e6565b610470610433600384016110e6565b61046260ff6005600487015496015416936040519788978852602088015260c0604088015260c0870190611012565b908582036060870152611012565b91608084015261047f81610ff2565b60a08301520390f35b346103e05760403660031901126103e05760043567ffffffffffffffff81116103e0576104b99036906004016111d0565b60243567ffffffffffffffff81116103e0576104d99036906004016111d0565b6003549291600019841461088d5760018401600355604051916104fb836110a8565b848352610523602084019233845261051436878a6111fe565b926040860193845236916111fe565b6060840152426080840152600060a084015284600052600060205260406000209183518355600183019060018060a01b039051166bffffffffffffffffffffffff60a01b8254161790555180519067ffffffffffffffff821161038057819061058f6002850154611052565b601f811161083a575b50602090601f83116001146107c8576000926107bd575b50508160011b916000199060031b1c19161760028201555b606082015180519067ffffffffffffffff8211610380576105eb6003840154611052565b601f8111610776575b50602090601f831160011461070357918060a094926005946000926106f8575b50508160011b916000199060031b1c19161760038201555b608084015160048201550191015161064381610ff2565b61064c81610ff2565b60ff801983541691161790553360005260026020526040600020805468010000000000000000811015610380576020946106ae82869460017fa77d68fbcbeabc65166b703a20a3d464bc7afbe9842dae73426661fb9829c97e950181556111a2565b81549060031b9085821b91600019901b19161790558360405191878352818884015260408301376000604085830101526040813395601f80199101168101030190a3604051908152f35b015190508980610614565b90601f198316916003850160005260206000209260005b81811061075e575092600192859260059660a0989610610745575b505050811b01600382015561062c565b015160001960f88460031b161c19169055898080610735565b9293602060018192878601518155019501930161071a565b600384016000526020600020601f840160051c8101602085106107b6575b601f830160051c820181106107aa5750506105f4565b60008155600101610794565b5080610794565b0151905087806105af565b9250600284016000526020600020906000935b601f198416851061081f576001945083601f19811610610806575b505050811b0160028201556105c7565b015160001960f88460031b161c191690558780806107f6565b818101518355602094850194600190930192909101906107db565b909150600284016000526020600020601f840160051c810160208510610886575b90849392915b601f830160051c82018110610877575050610598565b60008155859450600101610861565b508061085b565b634e487b7160e01b600052601160045260246000fd5b346103e0576020806003193601126103e0576001600160a01b036108c561118c565b1660005260028152604060002060405190818382549182815201908192600052846000209060005b86828210610943578686610903828803836110c4565b604051928392818401908285525180915260408401929160005b82811061092c57505050500390f35b83518552869550938101939281019260010161091d565b8354855290930192600192830192016108ed565b346103e0576020806003193601126103e057600435600060a060405161097c816110a8565b828152828582015260606040820152606080820152826080820152015280151580610a86575b6109ab9061127e565b600052600081526040600020604051906109c4826110a8565b8054825260018101546001600160a01b0390811684840190815290610a6c90610a596109f2600286016110e6565b60408701908152610a05600387016110e6565b926060880193845260ff600560048901549860808b01998a520154169560a0890196610a3081610ff2565b8752604051998a99818b5251908a0152511660408801525160c0606088015260e0870190611012565b9051858203601f19016080870152611012565b915160a084015251610a7d81610ff2565b60c08301520390f35b5060035481106109a2565b346103e05760403660031901126103e057610aaa61118c565b6001600160a01b03166000908152600260205260409020805460243591908210156103e057602091610adb916111a2565b90546040519160031b1c8152f35b346103e05760003660031901126103e0576004546040516001600160a01b039091168152602090f35b346103e05760003660031901126103e057600354600019810190811161088d57602090604051908152f35b346103e05760003660031901126103e0576020600354604051908152f35b346103e05760203660031901126103e057600435610b8460018060a01b03600454163314611245565b80151580610c37575b610b969061127e565b80600052600060205260ff60056040600020015416610bb481610ff2565b610bfb578060005260006020526005604060002001600160ff198254161790557fce614ce1271011a18a325ff95246c64fe33780985159627d996036735df6f588600080a2005b60405162461bcd60e51b815260206004820152601460248201527343617365206d7573742062652070656e64696e6760601b6044820152606490fd5b506003548110610b8d565b346103e05760203660031901126103e05760043560005260016020526040600020805460ff60018301541691610c7a600282016110e6565b610cb260ff6004600385015494015416916040519586958652610c9c81610ff2565b602086015260a0604086015260a0850190611012565b916060840152151560808301520390f35b346103e0576020806003193601126103e05760043560006080604051610ce88161108c565b828152828582015260606040820152826060820152015280151580610e0c575b610d119061127e565b806000526001825260036040600020015415610dd15760005260018152604060002060405190610d408261108c565b8054825260ff60018201541683830190610d5981610ff2565b8152610dbe610d6a600284016110e6565b6040850190815260ff60046003860154956060880196875201541692608086019315158452604051968796818852519087015251610da781610ff2565b60408601525160a0606086015260c0850190611012565b9151608084015251151560a08301520390f35b60405162461bcd60e51b8152600481018390526013602482015272139bc81d995c991a58dd081c9958dbdc991959606a1b6044820152606490fd5b506003548110610d08565b346103e05760203660031901126103e05760043580151580610e5a575b610e3d9061127e565b600052600160205260206003604060002001541515604051908152f35b506003548110610e34565b346103e0576020806003193601126103e0576004359081151580610fe7575b610e8d9061127e565b600082815280825260409020600101546001600160a01b03163303610fa3578160005260008152600260ff60056040600020015416610ecb81610ff2565b03610f6657816000526001815260ff6004604060002001541615610f2a57600090828252526005604060002001600360ff198254161790557f92924a552a1c83f95df518f16c6f1bdfc61a7b7323255ede1ef8f3dfe2dc437c600080a2005b6064906040519062461bcd60e51b82526004820152601560248201527415995c991a58dd081b5d5cdd08189948199a5b985b605a1b6044820152fd5b6064906040519062461bcd60e51b82526004820152601660248201527510d85cd9481b5d5cdd0818994818dbdb5c1b195d195960521b6044820152fd5b6064906040519062461bcd60e51b82526004820152601960248201527f4f6e6c7920706c61696e746966662063616e2061707065616c000000000000006044820152fd5b506003548210610e84565b60041115610ffc57565b634e487b7160e01b600052602160045260246000fd5b919082519283825260005b84811061103e575050826000602080949584010152601f8019910116010190565b60208183018101518483018201520161101d565b90600182811c92168015611082575b602083101461106c57565b634e487b7160e01b600052602260045260246000fd5b91607f1691611061565b60a0810190811067ffffffffffffffff82111761038057604052565b60c0810190811067ffffffffffffffff82111761038057604052565b90601f8019910116810190811067ffffffffffffffff82111761038057604052565b90604051918260008254926110fa84611052565b9081845260019485811690816000146111695750600114611126575b5050611124925003836110c4565b565b9093915060005260209081600020936000915b81831061115157505061112493508201013880611116565b85548884018501529485019487945091830191611139565b91505061112494506020925060ff191682840152151560051b8201013880611116565b600435906001600160a01b03821682036103e057565b80548210156111ba5760005260206000200190600090565b634e487b7160e01b600052603260045260246000fd5b9181601f840112156103e05782359167ffffffffffffffff83116103e057602083818601950101116103e057565b92919267ffffffffffffffff82116103805760405191611228601f8201601f1916602001846110c4565b8294818452818301116103e0578281602093846000960137010152565b1561124c57565b60405162461bcd60e51b815260206004820152600a60248201526927b7363c9037bbb732b960b11b6044820152606490fd5b1561128557565b60405162461bcd60e51b815260206004820152601360248201527210d85cd948191bd95cc81b9bdd08195e1a5cdd606a1b6044820152606490fdfea2646970667358221220e444319aee051f1af8fabd1190d8c769cd93d1f83609adc347003729105d246964736f6c63430008130033",
  "linkReferences": {},
  "deployedLinkReferences": {}
}